{
  "contractName": "TheAirdropDistributor",
  "abi": [
    {
      "anonymous": false,
      "inputs": [
        {
          "indexed": false,
          "internalType": "address",
          "name": "_address",
          "type": "address"
        }
      ],
      "name": "Claimed",
      "type": "event"
    },
    {
      "anonymous": false,
      "inputs": [
        {
          "indexed": false,
          "internalType": "uint8",
          "name": "version",
          "type": "uint8"
        }
      ],
      "name": "Initialized",
      "type": "event"
    },
    {
      "inputs": [],
      "name": "admin",
      "outputs": [
        {
          "internalType": "address",
          "name": "",
          "type": "address"
        }
      ],
      "stateMutability": "view",
      "type": "function",
      "constant": true
    },
    {
      "inputs": [
        {
          "internalType": "address",
          "name": "",
          "type": "address"
        }
      ],
      "name": "nonces",
      "outputs": [
        {
          "internalType": "uint256",
          "name": "",
          "type": "uint256"
        }
      ],
      "stateMutability": "view",
      "type": "function",
      "constant": true
    },
    {
      "inputs": [],
      "name": "rootHash",
      "outputs": [
        {
          "internalType": "bytes32",
          "name": "",
          "type": "bytes32"
        }
      ],
      "stateMutability": "view",
      "type": "function",
      "constant": true
    },
    {
      "inputs": [
        {
          "internalType": "string",
          "name": "_name",
          "type": "string"
        },
        {
          "internalType": "string",
          "name": "_version",
          "type": "string"
        }
      ],
      "name": "initialize",
      "outputs": [],
      "stateMutability": "nonpayable",
      "type": "function"
    },
    {
      "inputs": [
        {
          "internalType": "bytes32",
          "name": "_rootHash",
          "type": "bytes32"
        }
      ],
      "name": "updateRootHash",
      "outputs": [],
      "stateMutability": "nonpayable",
      "type": "function"
    },
    {
      "inputs": [
        {
          "internalType": "bytes32[]",
          "name": "_path",
          "type": "bytes32[]"
        }
      ],
      "name": "claimByMerklePath",
      "outputs": [],
      "stateMutability": "nonpayable",
      "type": "function"
    },
    {
      "inputs": [
        {
          "internalType": "bytes",
          "name": "_signature",
          "type": "bytes"
        }
      ],
      "name": "claimBySignature",
      "outputs": [],
      "stateMutability": "nonpayable",
      "type": "function"
    }
  ],
  "bytecode": "0x608060405234801561001057600080fd5b50611b94806100206000396000f3fe608060405234801561001057600080fd5b506004361061007d5760003560e01c806359ada08e1161005b57806359ada08e146100d85780637ecebe00146100f45780638af53a2f14610124578063f851a440146101405761007d565b80631d80009a146100825780634233894e146100a05780634cd88b76146100bc575b600080fd5b61008a61015e565b6040516100979190610e39565b60405180910390f35b6100ba60048036038101906100b59190610fae565b610164565b005b6100d660048036038101906100d19190611098565b61047d565b005b6100f260048036038101906100ed919061113c565b61062a565b005b61010e600480360381019061010991906111c7565b6106c4565b60405161011b919061120d565b60405180910390f35b61013e60048036038101906101399190611288565b6106dc565b005b6101486108b5565b60405161015591906112e4565b60405180910390f35b60355481565b603960003373ffffffffffffffffffffffffffffffffffffffff1673ffffffffffffffffffffffffffffffffffffffff16815260200190815260200160002060009054906101000a900460ff16156101f1576040517f08c379a00000000000000000000000000000000000000000000000000000000081526004016101e890611382565b60405180910390fd5b60006102857fa4665fa550abd9e6ebf22b799abfb0bd76316649060d9fdbcbb6ee5ef3c2040033603860003373ffffffffffffffffffffffffffffffffffffffff1673ffffffffffffffffffffffffffffffffffffffff1681526020019081526020016000205460405160200161026a939291906113a2565b604051602081830303815290604052805190602001206108db565b9050603860003373ffffffffffffffffffffffffffffffffffffffff1673ffffffffffffffffffffffffffffffffffffffff16815260200190815260200160002060008154809291906102d790611408565b919050555060006102e882846108f5565b9050603760009054906101000a900473ffffffffffffffffffffffffffffffffffffffff1673ffffffffffffffffffffffffffffffffffffffff168173ffffffffffffffffffffffffffffffffffffffff161461037a576040517f08c379a0000000000000000000000000000000000000000000000000000000008152600401610371906114c2565b60405180910390fd5b600073ffffffffffffffffffffffffffffffffffffffff168173ffffffffffffffffffffffffffffffffffffffff16036103e9576040517f08c379a00000000000000000000000000000000000000000000000000000000081526004016103e090611554565b60405180910390fd5b6001603960003373ffffffffffffffffffffffffffffffffffffffff1673ffffffffffffffffffffffffffffffffffffffff16815260200190815260200160002060006101000a81548160ff0219169083151502179055507fb449c24d261a59627b537c8c41c57ab559f4205c56bea745ff61c5521bece2143360405161047091906112e4565b60405180910390a1505050565b60008060019054906101000a900460ff161590508080156104ae5750600160008054906101000a900460ff1660ff16105b806104db57506104bd3061091c565b1580156104da5750600160008054906101000a900460ff1660ff16145b5b61051a576040517f08c379a0000000000000000000000000000000000000000000000000000000008152600401610511906115e6565b60405180910390fd5b60016000806101000a81548160ff021916908360ff1602179055508015610557576001600060016101000a81548160ff0219169083151502179055505b33603760006101000a81548173ffffffffffffffffffffffffffffffffffffffff021916908373ffffffffffffffffffffffffffffffffffffffff1602179055507f4d690d7133a91f3a87725794a4532041be28f4eedb8e4305eafe73c6d732b39060001b6035819055506105cc838361093f565b80156106255760008060016101000a81548160ff0219169083151502179055507f7f26b83ff96e1f2b6a682f133852f6798a09c465da95921460cefb3847402498600160405161061c9190611658565b60405180910390a15b505050565b603760009054906101000a900473ffffffffffffffffffffffffffffffffffffffff1673ffffffffffffffffffffffffffffffffffffffff163373ffffffffffffffffffffffffffffffffffffffff16146106ba576040517f08c379a00000000000000000000000000000000000000000000000000000000081526004016106b1906116bf565b60405180910390fd5b8060358190555050565b60386020528060005260406000206000915090505481565b603660003373ffffffffffffffffffffffffffffffffffffffff1673ffffffffffffffffffffffffffffffffffffffff16815260200190815260200160002060009054906101000a900460ff1615610769576040517f08c379a000000000000000000000000000000000000000000000000000000000815260040161076090611382565b60405180910390fd5b60003360405160200161077c9190611727565b6040516020818303038152906040528051906020012090506107e2838380806020026020016040519081016040528093929190818152602001838360200280828437600081840152601f19601f820116905080830192505050505050506035548361099c565b610821576040517f08c379a00000000000000000000000000000000000000000000000000000000081526004016108189061178e565b60405180910390fd5b6001603660003373ffffffffffffffffffffffffffffffffffffffff1673ffffffffffffffffffffffffffffffffffffffff16815260200190815260200160002060006101000a81548160ff0219169083151502179055507fb449c24d261a59627b537c8c41c57ab559f4205c56bea745ff61c5521bece214336040516108a891906112e4565b60405180910390a1505050565b603760009054906101000a900473ffffffffffffffffffffffffffffffffffffffff1681565b60006108ee6108e86109b3565b836109f3565b9050919050565b60008060006109048585610a26565b9150915061091181610a77565b819250505092915050565b6000808273ffffffffffffffffffffffffffffffffffffffff163b119050919050565b600060019054906101000a900460ff1661098e576040517f08c379a000000000000000000000000000000000000000000000000000000000815260040161098590611820565b60405180910390fd5b6109988282610bdd565b5050565b6000826109a98584610c58565b1490509392505050565b60006109ee7f8b73c3c69bb8fe3d512ecc4cf759cc79239f7b179b0ffacaa9a75d522b39400f6109e1610cae565b6109e9610cb8565b610cc2565b905090565b60008282604051602001610a089291906118b8565b60405160208183030381529060405280519060200120905092915050565b6000806041835103610a675760008060006020860151925060408601519150606086015160001a9050610a5b87828585610cfc565b94509450505050610a70565b60006002915091505b9250929050565b60006004811115610a8b57610a8a6118ef565b5b816004811115610a9e57610a9d6118ef565b5b0315610bda5760016004811115610ab857610ab76118ef565b5b816004811115610acb57610aca6118ef565b5b03610b0b576040517f08c379a0000000000000000000000000000000000000000000000000000000008152600401610b029061196a565b60405180910390fd5b60026004811115610b1f57610b1e6118ef565b5b816004811115610b3257610b316118ef565b5b03610b72576040517f08c379a0000000000000000000000000000000000000000000000000000000008152600401610b69906119d6565b60405180910390fd5b60036004811115610b8657610b856118ef565b5b816004811115610b9957610b986118ef565b5b03610bd9576040517f08c379a0000000000000000000000000000000000000000000000000000000008152600401610bd090611a68565b60405180910390fd5b5b50565b600060019054906101000a900460ff16610c2c576040517f08c379a0000000000000000000000000000000000000000000000000000000008152600401610c2390611820565b60405180910390fd5b600082805190602001209050600082805190602001209050816001819055508060028190555050505050565b60008082905060005b8451811015610ca357610c8e82868381518110610c8157610c80611a88565b5b6020026020010151610dde565b91508080610c9b90611408565b915050610c61565b508091505092915050565b6000600154905090565b6000600254905090565b60008383834630604051602001610cdd959493929190611ab7565b6040516020818303038152906040528051906020012090509392505050565b6000807f7fffffffffffffffffffffffffffffff5d576e7357a4501ddfe92f46681b20a08360001c1115610d37576000600391509150610dd5565b600060018787878760405160008152602001604052604051610d5c9493929190611b19565b6020604051602081039080840390855afa158015610d7e573d6000803e3d6000fd5b505050602060405103519050600073ffffffffffffffffffffffffffffffffffffffff168173ffffffffffffffffffffffffffffffffffffffff1603610dcc57600060019250925050610dd5565b80600092509250505b94509492505050565b6000818310610df657610df18284610e09565b610e01565b610e008383610e09565b5b905092915050565b600082600052816020526040600020905092915050565b6000819050919050565b610e3381610e20565b82525050565b6000602082019050610e4e6000830184610e2a565b92915050565b6000604051905090565b600080fd5b600080fd5b600080fd5b600080fd5b6000601f19601f8301169050919050565b7f4e487b7100000000000000000000000000000000000000000000000000000000600052604160045260246000fd5b610ebb82610e72565b810181811067ffffffffffffffff82111715610eda57610ed9610e83565b5b80604052505050565b6000610eed610e54565b9050610ef98282610eb2565b919050565b600067ffffffffffffffff821115610f1957610f18610e83565b5b610f2282610e72565b9050602081019050919050565b82818337600083830152505050565b6000610f51610f4c84610efe565b610ee3565b905082815260208101848484011115610f6d57610f6c610e6d565b5b610f78848285610f2f565b509392505050565b600082601f830112610f9557610f94610e68565b5b8135610fa5848260208601610f3e565b91505092915050565b600060208284031215610fc457610fc3610e5e565b5b600082013567ffffffffffffffff811115610fe257610fe1610e63565b5b610fee84828501610f80565b91505092915050565b600067ffffffffffffffff82111561101257611011610e83565b5b61101b82610e72565b9050602081019050919050565b600061103b61103684610ff7565b610ee3565b90508281526020810184848401111561105757611056610e6d565b5b611062848285610f2f565b509392505050565b600082601f83011261107f5761107e610e68565b5b813561108f848260208601611028565b91505092915050565b600080604083850312156110af576110ae610e5e565b5b600083013567ffffffffffffffff8111156110cd576110cc610e63565b5b6110d98582860161106a565b925050602083013567ffffffffffffffff8111156110fa576110f9610e63565b5b6111068582860161106a565b9150509250929050565b61111981610e20565b811461112457600080fd5b50565b60008135905061113681611110565b92915050565b60006020828403121561115257611151610e5e565b5b600061116084828501611127565b91505092915050565b600073ffffffffffffffffffffffffffffffffffffffff82169050919050565b600061119482611169565b9050919050565b6111a481611189565b81146111af57600080fd5b50565b6000813590506111c18161119b565b92915050565b6000602082840312156111dd576111dc610e5e565b5b60006111eb848285016111b2565b91505092915050565b6000819050919050565b611207816111f4565b82525050565b600060208201905061122260008301846111fe565b92915050565b600080fd5b600080fd5b60008083601f84011261124857611247610e68565b5b8235905067ffffffffffffffff81111561126557611264611228565b5b6020830191508360208202830111156112815761128061122d565b5b9250929050565b6000806020838503121561129f5761129e610e5e565b5b600083013567ffffffffffffffff8111156112bd576112bc610e63565b5b6112c985828601611232565b92509250509250929050565b6112de81611189565b82525050565b60006020820190506112f960008301846112d5565b92915050565b600082825260208201905092915050565b7f41697264726f704469737472696275746f723a2044726f7020616c726561647960008201527f20636c61696d65642e0000000000000000000000000000000000000000000000602082015250565b600061136c6029836112ff565b915061137782611310565b604082019050919050565b6000602082019050818103600083015261139b8161135f565b9050919050565b60006060820190506113b76000830186610e2a565b6113c460208301856112d5565b6113d160408301846111fe565b949350505050565b7f4e487b7100000000000000000000000000000000000000000000000000000000600052601160045260246000fd5b6000611413826111f4565b91507fffffffffffffffffffffffffffffffffffffffffffffffffffffffffffffffff8203611445576114446113d9565b5b600182019050919050565b7f4d65737361676556657269666965723a20696e76616c6964207369676e61747560008201527f7265000000000000000000000000000000000000000000000000000000000000602082015250565b60006114ac6022836112ff565b91506114b782611450565b604082019050919050565b600060208201905081810360008301526114db8161149f565b9050919050565b7f45434453415570677261646561626c653a20696e76616c6964207369676e617460008201527f7572650000000000000000000000000000000000000000000000000000000000602082015250565b600061153e6023836112ff565b9150611549826114e2565b604082019050919050565b6000602082019050818103600083015261156d81611531565b9050919050565b7f496e697469616c697a61626c653a20636f6e747261637420697320616c72656160008201527f647920696e697469616c697a6564000000000000000000000000000000000000602082015250565b60006115d0602e836112ff565b91506115db82611574565b604082019050919050565b600060208201905081810360008301526115ff816115c3565b9050919050565b6000819050919050565b600060ff82169050919050565b6000819050919050565b600061164261163d61163884611606565b61161d565b611610565b9050919050565b61165281611627565b82525050565b600060208201905061166d6000830184611649565b92915050565b7f3430310000000000000000000000000000000000000000000000000000000000600082015250565b60006116a96003836112ff565b91506116b482611673565b602082019050919050565b600060208201905081810360008301526116d88161169c565b9050919050565b60008160601b9050919050565b60006116f7826116df565b9050919050565b6000611709826116ec565b9050919050565b61172161171c82611189565b6116fe565b82525050565b60006117338284611710565b60148201915081905092915050565b7f41697264726f704469737472696275746f723a20343030000000000000000000600082015250565b60006117786017836112ff565b915061178382611742565b602082019050919050565b600060208201905081810360008301526117a78161176b565b9050919050565b7f496e697469616c697a61626c653a20636f6e7472616374206973206e6f74206960008201527f6e697469616c697a696e67000000000000000000000000000000000000000000602082015250565b600061180a602b836112ff565b9150611815826117ae565b604082019050919050565b60006020820190508181036000830152611839816117fd565b9050919050565b600081905092915050565b7f1901000000000000000000000000000000000000000000000000000000000000600082015250565b6000611881600283611840565b915061188c8261184b565b600282019050919050565b6000819050919050565b6118b26118ad82610e20565b611897565b82525050565b60006118c382611874565b91506118cf82856118a1565b6020820191506118df82846118a1565b6020820191508190509392505050565b7f4e487b7100000000000000000000000000000000000000000000000000000000600052602160045260246000fd5b7f45434453413a20696e76616c6964207369676e61747572650000000000000000600082015250565b60006119546018836112ff565b915061195f8261191e565b602082019050919050565b6000602082019050818103600083015261198381611947565b9050919050565b7f45434453413a20696e76616c6964207369676e6174757265206c656e67746800600082015250565b60006119c0601f836112ff565b91506119cb8261198a565b602082019050919050565b600060208201905081810360008301526119ef816119b3565b9050919050565b7f45434453413a20696e76616c6964207369676e6174757265202773272076616c60008201527f7565000000000000000000000000000000000000000000000000000000000000602082015250565b6000611a526022836112ff565b9150611a5d826119f6565b604082019050919050565b60006020820190508181036000830152611a8181611a45565b9050919050565b7f4e487b7100000000000000000000000000000000000000000000000000000000600052603260045260246000fd5b600060a082019050611acc6000830188610e2a565b611ad96020830187610e2a565b611ae66040830186610e2a565b611af360608301856111fe565b611b0060808301846112d5565b9695505050505050565b611b1381611610565b82525050565b6000608082019050611b2e6000830187610e2a565b611b3b6020830186611b0a565b611b486040830185610e2a565b611b556060830184610e2a565b9594505050505056fea2646970667358221220a84b3f97443e1814c3edf14c4d31654e78797a87b3dc2234afb3093d6d4afdba64736f6c634300080d0033",
  "immutableReferences": {},
  "source": "// SPDX-License-Identifier: MIT\n\npragma solidity ^0.8.0;\n\nimport \"@openzeppelin/contracts-upgradeable/utils/cryptography/ECDSAUpgradeable.sol\";\nimport \"@openzeppelin/contracts-upgradeable/utils/cryptography/draft-EIP712Upgradeable.sol\";\nimport \"../libs/MerkleProof.sol\";\n\ncontract TheAirdropDistributor is EIP712Upgradeable {\n\n  bytes32 public rootHash;\n  mapping(address => bool) claimMerkleTreeMarker;\n\n  address public admin;\n  mapping (address => uint) public nonces;\n  mapping(address => bool) claimSignatureMarker;\n\n  event Claimed(address _address);\n\n  function initialize(\n    string memory _name,\n    string memory _version\n  ) public initializer {\n    admin = msg.sender;\n    rootHash = 0x4d690d7133a91f3a87725794a4532041be28f4eedb8e4305eafe73c6d732b390;\n    EIP712Upgradeable.__EIP712_init(_name, _version);\n  }\n\n  function updateRootHash(bytes32 _rootHash) external {\n    require(msg.sender == admin, \"401\");\n    rootHash = _rootHash;\n  }\n\n  function claimByMerklePath(bytes32[] calldata _path) external {\n    require(!claimMerkleTreeMarker[msg.sender], 'AirdropDistributor: Drop already claimed.');\n    bytes32 hash = keccak256(abi.encodePacked(msg.sender));\n    require(MerkleProof.verify(_path, rootHash, hash), 'AirdropDistributor: 400');\n    claimMerkleTreeMarker[msg.sender] = true;\n    // TODO: distribute the airdrop to user\n    emit Claimed(msg.sender);\n  }\n\n  function claimBySignature(bytes memory _signature) external {\n    require(!claimSignatureMarker[msg.sender], 'AirdropDistributor: Drop already claimed.');\n    bytes32 digest = _hashTypedDataV4(keccak256(abi.encode(\n        keccak256(\"Airdrop(address user,uint256 nonce)\"),\n        msg.sender,\n        nonces[msg.sender]\n      )));\n    nonces[msg.sender]++;\n    address signer = ECDSAUpgradeable.recover(digest, _signature);\n    require(signer == admin, \"MessageVerifier: invalid signature\");\n    require(signer != address(0), \"ECDSAUpgradeable: invalid signature\");\n    claimSignatureMarker[msg.sender] = true;\n    // TODO: distribute the airdrop to user\n    emit Claimed(msg.sender);\n  }\n}",
  "sourcePath": "/Users/ngovietduy/go/src/air-drop-test/contracts/Airdrop.sol",
  "compiler": {
    "name": "solc",
    "version": "0.8.13+commit.abaa5c0e.Emscripten.clang"
  },
  "schemaVersion": "3.4.10",
  "updatedAt": "2022-11-14T10:37:43.511Z",
  "networkType": "ethereum",
  "devdoc": {
    "kind": "dev",
    "methods": {},
    "version": 1
  },
  "userdoc": {
    "kind": "user",
    "methods": {},
    "version": 1
  }
}